:100000000EC024C0F9C114C121C020C01FC01EC031
:100010001DC01CC01BC01AC019C018C017C01124B5
:100020001FBECFE5D1E0DEBFCDBF14BE88E10FB665
:10003000F89481BD11BC0FBE20E0A0E6B0E001C085
:100040001D92A437B207E1F713D215C2D9CFF894A5
:1000500080B7846080BF80B7806880BF84E18DBD39
:100060008EBD89B7806489BFAC9A85B7816085BF32
:100070008BB780628BBFBB9AC398789480B5816040
:1000800080BD80B5826080BD80B5846080BD28E27F
:1000900088E190E00FB6F894A89581BD0FBE21BD10
:1000A0008CE080936C0080916C00809360000895D8
:1000B00088B398E0892788BB10926E0010926F0079
:1000C00010927000109271008091690091E0892770
:1000D00080936900089540916E0050916F00609187
:1000E000700070917100AA2797FDA095BA2F841710
:1000F0009507A607B70750F4DBDF80916A0090915F
:100100006B00019690936B0080936A000895409174
:100110006E0050916F006091700070917100AA277D
:1001200097FDA095BA2F84179507A607B70730F457
:10013000BFDF809168008F5F809368000895109200
:10014000680020916A0030916B002F5F3F4F309321
:100150006B0020936A0082309105A9F01CF401978E
:1001600039F0089583309105C9F0049711F108958D
:1001700080916500909166009695879590936600B2
:100180008093650008958091630090916400969536
:100190008795909364008093630008958091610037
:1001A000909162009695879590936200809361008C
:1001B000089580916000869580936000089583E0A3
:1001C00090E0909366008093650088E090E09093C3
:1001D00064008093630080E496E0909362008093D3
:1001E000610080916C008093600010926B0010920F
:1001F0006A0010926E0010926F00109270001092C0
:10020000710010926800089580916800813019F49F
:1002100086E390E002C082E190E079CF80916800AF
:10022000833019F486E390E002C082E190E06FCF62
:100230001F920F920FB60F9211242F933F934F935B
:100240005F936F937F938F939F93AF93BF93EF933E
:10025000FF93A895809172009091730001969093FE
:1002600073008093720080916E0090916F00A09156
:100270007000B09171000196A11DB11D80936E00B8
:1002800090936F00A0937000B0937100809167000D
:100290008230A8F080916E0090916F00A091700064
:1002A000B091710080389D48AB45B10540F087DFC3
:1002B00080916900813009F4FBDE10926700809123
:1002C0006700823008F086C0F89480916A009091AF
:1002D0006B00C89708F072C080916A0090916B0023
:1002E000029750F480916900811103C082E190E08F
:1002F00063C08DE690E060C080916A0090916B00D1
:10030000429788F4809165009091660080FF02C05A
:100310007BDF01C083DF80916800843009F05BC01F
:1003200081E090E016C080916A0090916B00829706
:1003300090F4809163009091640080FF02C064DFBC
:1003400001C06CDF80916800843009F044C082E015
:1003500090E0F5DE40C080916A0090916B00C297FA
:1003600080F4809161009091620080FF02C04CDFB8
:1003700001C054DF80916800843069F583E090E02B
:10038000E8CF80916A0090916B00C69770F48091DD
:10039000600080FF02C038DF01C040DF809168004C
:1003A0008430C9F484E090E0D4CF80916900882340
:1003B00009F49CCF8EE692E08EDE0DC0809167003E
:1003C0008F5F80936700FBDE80916900813019F4B4
:1003D0006FDE01C07894FF91EF91BF91AF919F9133
:1003E0008F917F916F915F914F913F912F910F90DE
:1003F0000FBE0F901F9018951F920F920FB60F927D
:1004000011242F938F939F93F89480916D00880F00
:1004100080936D0080917200909173000997D0F0E5
:1004200080917200909173008034964098F480918E
:100430006D00816080936D0080916D008F3F51F45D
:100440008091690091E089278093690088B398E0E2
:10045000892788BB10927300109272001FBC789499
:100460009F918F912F910F900FBE0F901F90189515
:0A047000EEDD0000FECFF894FFCF90
:00000001FF
